{
  "contractName": "VotingSystem",
  "abi": [
    {
      "inputs": [],
      "stateMutability": "nonpayable",
      "type": "constructor"
    },
    {
      "anonymous": false,
      "inputs": [
        {
          "indexed": false,
          "internalType": "uint256",
          "name": "candidateId",
          "type": "uint256"
        },
        {
          "indexed": false,
          "internalType": "string",
          "name": "candidateName",
          "type": "string"
        }
      ],
      "name": "CandidateAdded",
      "type": "event"
    },
    {
      "anonymous": false,
      "inputs": [],
      "name": "ElectionEnded",
      "type": "event"
    },
    {
      "anonymous": false,
      "inputs": [],
      "name": "ElectionStarted",
      "type": "event"
    },
    {
      "anonymous": false,
      "inputs": [
        {
          "indexed": false,
          "internalType": "address",
          "name": "voter",
          "type": "address"
        },
        {
          "indexed": false,
          "internalType": "uint256",
          "name": "candidateId",
          "type": "uint256"
        }
      ],
      "name": "VoteCast",
      "type": "event"
    },
    {
      "anonymous": false,
      "inputs": [
        {
          "indexed": false,
          "internalType": "address",
          "name": "voterAddress",
          "type": "address"
        }
      ],
      "name": "VoterAuthorized",
      "type": "event"
    },
    {
      "inputs": [],
      "name": "administrator",
      "outputs": [
        {
          "internalType": "address",
          "name": "",
          "type": "address"
        }
      ],
      "stateMutability": "view",
      "type": "function"
    },
    {
      "inputs": [],
      "name": "candidateCount",
      "outputs": [
        {
          "internalType": "uint256",
          "name": "",
          "type": "uint256"
        }
      ],
      "stateMutability": "view",
      "type": "function"
    },
    {
      "inputs": [],
      "name": "currentStatus",
      "outputs": [
        {
          "internalType": "enum VotingSystem.ElectionStatus",
          "name": "",
          "type": "uint8"
        }
      ],
      "stateMutability": "view",
      "type": "function"
    },
    {
      "inputs": [],
      "name": "voterCount",
      "outputs": [
        {
          "internalType": "uint256",
          "name": "",
          "type": "uint256"
        }
      ],
      "stateMutability": "view",
      "type": "function"
    },
    {
      "inputs": [],
      "name": "startElection",
      "outputs": [],
      "stateMutability": "nonpayable",
      "type": "function"
    },
    {
      "inputs": [],
      "name": "endElection",
      "outputs": [],
      "stateMutability": "nonpayable",
      "type": "function"
    },
    {
      "inputs": [
        {
          "internalType": "string",
          "name": "_name",
          "type": "string"
        }
      ],
      "name": "addCandidate",
      "outputs": [],
      "stateMutability": "nonpayable",
      "type": "function"
    },
    {
      "inputs": [
        {
          "internalType": "address",
          "name": "_voter",
          "type": "address"
        }
      ],
      "name": "authorizeVoter",
      "outputs": [],
      "stateMutability": "nonpayable",
      "type": "function"
    },
    {
      "inputs": [
        {
          "internalType": "uint256",
          "name": "_candidateId",
          "type": "uint256"
        }
      ],
      "name": "castVote",
      "outputs": [],
      "stateMutability": "nonpayable",
      "type": "function"
    },
    {
      "inputs": [
        {
          "internalType": "uint256",
          "name": "_candidateId",
          "type": "uint256"
        }
      ],
      "name": "getCandidate",
      "outputs": [
        {
          "internalType": "string",
          "name": "name",
          "type": "string"
        },
        {
          "internalType": "uint256",
          "name": "voteCount",
          "type": "uint256"
        }
      ],
      "stateMutability": "view",
      "type": "function"
    },
    {
      "inputs": [
        {
          "internalType": "address",
          "name": "_user",
          "type": "address"
        }
      ],
      "name": "getUserRole",
      "outputs": [
        {
          "internalType": "string",
          "name": "role",
          "type": "string"
        }
      ],
      "stateMutability": "view",
      "type": "function"
    }
  ],
  "bytecode": "0x60806040523480156200001157600080fd5b50336000806101000a81548173ffffffffffffffffffffffffffffffffffffffff021916908373ffffffffffffffffffffffffffffffffffffffff16021790555060008060146101000a81548160ff021916908360028111156200007a576200007962000284565b5b0217905550620000c56040518060400160405280600b81526020017f43616e64696461746520410000000000000000000000000000000000000000008152506200011160201b60201c565b6200010b6040518060400160405280600b81526020017f43616e64696461746520420000000000000000000000000000000000000000008152506200011160201b60201c565b62000486565b6040518060600160405280600454815260200182815260200160008152506001600060045481526020019081526020016000206000820151816000015560208201518160010190805190602001906200016c929190620001d4565b50604082015181600201559050507fe83b2a43e7e82d975c8a0a6d2f045153c869e111136a34d1889ab7b598e396a360045482604051620001af92919062000372565b60405180910390a160046000815480929190620001cc90620003d5565b919050555050565b828054620001e29062000451565b90600052602060002090601f01602090048101928262000206576000855562000252565b82601f106200022157805160ff191683800117855562000252565b8280016001018555821562000252579182015b828111156200025157825182559160200191906001019062000234565b5b50905062000261919062000265565b5090565b5b808211156200028057600081600090555060010162000266565b5090565b7f4e487b7100000000000000000000000000000000000000000000000000000000600052602160045260246000fd5b6000819050919050565b620002c881620002b3565b82525050565b600081519050919050565b600082825260208201905092915050565b60005b838110156200030a578082015181840152602081019050620002ed565b838111156200031a576000848401525b50505050565b6000601f19601f8301169050919050565b60006200033e82620002ce565b6200034a8185620002d9565b93506200035c818560208601620002ea565b620003678162000320565b840191505092915050565b6000604082019050620003896000830185620002bd565b81810360208301526200039d818462000331565b90509392505050565b7f4e487b7100000000000000000000000000000000000000000000000000000000600052601160045260246000fd5b6000620003e282620002b3565b91507fffffffffffffffffffffffffffffffffffffffffffffffffffffffffffffffff8203620004175762000416620003a6565b5b600182019050919050565b7f4e487b7100000000000000000000000000000000000000000000000000000000600052602260045260246000fd5b600060028204905060018216806200046a57607f821691505b60208210810362000480576200047f62000422565b5b50919050565b61171c80620004966000396000f3fe608060405234801561001057600080fd5b50600436106100a95760003560e01c806359f784681161007157806359f784681461016557806362d73eb81461016f578063a9a981a314610179578063ef8a923514610197578063f53d0a8e146101b5578063fd47b368146101d3576100a9565b806327820851146100ae57806335b8e820146100de5780633eb76b9c1461010f57806342169e481461012b578063462e91ec14610149575b600080fd5b6100c860048036038101906100c39190610f29565b6101ef565b6040516100d59190610fef565b60405180910390f35b6100f860048036038101906100f39190611047565b61034e565b604051610106929190611083565b60405180910390f35b61012960048036038101906101249190611047565b610472565b005b610133610707565b60405161014091906110b3565b60405180910390f35b610163600480360381019061015e9190611203565b61070d565b005b61016d61081f565b005b61017761097e565b005b610181610add565b60405161018e91906110b3565b60405180910390f35b61019f610ae3565b6040516101ac91906112c3565b60405180910390f35b6101bd610af6565b6040516101ca91906112ed565b60405180910390f35b6101ed60048036038101906101e89190610f29565b610b1a565b005b606060008054906101000a900473ffffffffffffffffffffffffffffffffffffffff1673ffffffffffffffffffffffffffffffffffffffff168273ffffffffffffffffffffffffffffffffffffffff1603610281576040518060400160405280600581526020017f41646d696e0000000000000000000000000000000000000000000000000000008152509050610349565b600360008373ffffffffffffffffffffffffffffffffffffffff1673ffffffffffffffffffffffffffffffffffffffff16815260200190815260200160002060009054906101000a900460ff1615610310576040518060400160405280600581526020017f566f7465720000000000000000000000000000000000000000000000000000008152509050610349565b6040518060400160405280600581526020017f477565737400000000000000000000000000000000000000000000000000000081525090505b919050565b606060006004548310610396576040517f08c379a000000000000000000000000000000000000000000000000000000000815260040161038d90611354565b60405180910390fd5b600060016000858152602001908152602001600020604051806060016040529081600082015481526020016001820180546103d0906113a3565b80601f01602080910402602001604051908101604052809291908181526020018280546103fc906113a3565b80156104495780601f1061041e57610100808354040283529160200191610449565b820191906000526020600020905b81548152906001019060200180831161042c57829003601f168201915b505050505081526020016002820154815250509050806020015181604001519250925050915091565b60018060028111156104875761048661124c565b5b600060149054906101000a900460ff1660028111156104a9576104a861124c565b5b146104e9576040517f08c379a00000000000000000000000000000000000000000000000000000000081526004016104e090611446565b60405180910390fd5b600360003373ffffffffffffffffffffffffffffffffffffffff1673ffffffffffffffffffffffffffffffffffffffff16815260200190815260200160002060009054906101000a900460ff16610575576040517f08c379a000000000000000000000000000000000000000000000000000000000815260040161056c906114b2565b60405180910390fd5b600260003373ffffffffffffffffffffffffffffffffffffffff1673ffffffffffffffffffffffffffffffffffffffff16815260200190815260200160002060009054906101000a900460ff1615610602576040517f08c379a00000000000000000000000000000000000000000000000000000000081526004016105f99061151e565b60405180910390fd5b6004548210610646576040517f08c379a000000000000000000000000000000000000000000000000000000000815260040161063d90611354565b60405180910390fd5b6001600260003373ffffffffffffffffffffffffffffffffffffffff1673ffffffffffffffffffffffffffffffffffffffff16815260200190815260200160002060006101000a81548160ff0219169083151502179055506001600083815260200190815260200160002060020160008154809291906106c59061156d565b91905055507fa36cc2bebb74db33e9f88110a07ef56e1b31b24b4c4f51b54b1664266e29f45b33836040516106fb9291906115b5565b60405180910390a15050565b60055481565b60008054906101000a900473ffffffffffffffffffffffffffffffffffffffff1673ffffffffffffffffffffffffffffffffffffffff163373ffffffffffffffffffffffffffffffffffffffff161461079b576040517f08c379a00000000000000000000000000000000000000000000000000000000081526004016107929061162a565b60405180910390fd5b60008060028111156107b0576107af61124c565b5b600060149054906101000a900460ff1660028111156107d2576107d161124c565b5b14610812576040517f08c379a000000000000000000000000000000000000000000000000000000000815260040161080990611446565b60405180910390fd5b61081b82610d57565b5050565b60008054906101000a900473ffffffffffffffffffffffffffffffffffffffff1673ffffffffffffffffffffffffffffffffffffffff163373ffffffffffffffffffffffffffffffffffffffff16146108ad576040517f08c379a00000000000000000000000000000000000000000000000000000000081526004016108a49061162a565b60405180910390fd5b60018060028111156108c2576108c161124c565b5b600060149054906101000a900460ff1660028111156108e4576108e361124c565b5b14610924576040517f08c379a000000000000000000000000000000000000000000000000000000000815260040161091b90611446565b60405180910390fd5b6002600060146101000a81548160ff0219169083600281111561094a5761094961124c565b5b02179055507f66ec723071e4bb646f7b35d31bc2dee8510979bd8c180edd0690d4f5e802f1e460405160405180910390a150565b60008054906101000a900473ffffffffffffffffffffffffffffffffffffffff1673ffffffffffffffffffffffffffffffffffffffff163373ffffffffffffffffffffffffffffffffffffffff1614610a0c576040517f08c379a0000000000000000000000000000000000000000000000000000000008152600401610a039061162a565b60405180910390fd5b6000806002811115610a2157610a2061124c565b5b600060149054906101000a900460ff166002811115610a4357610a4261124c565b5b14610a83576040517f08c379a0000000000000000000000000000000000000000000000000000000008152600401610a7a90611446565b60405180910390fd5b6001600060146101000a81548160ff02191690836002811115610aa957610aa861124c565b5b02179055507fc475c26aa25ed8e85a7faa790e5f63b5d7ee1025f12821f4c9bfddd36ab4d11260405160405180910390a150565b60045481565b600060149054906101000a900460ff1681565b60008054906101000a900473ffffffffffffffffffffffffffffffffffffffff1681565b60008054906101000a900473ffffffffffffffffffffffffffffffffffffffff1673ffffffffffffffffffffffffffffffffffffffff163373ffffffffffffffffffffffffffffffffffffffff1614610ba8576040517f08c379a0000000000000000000000000000000000000000000000000000000008152600401610b9f9061162a565b60405180910390fd5b6000806002811115610bbd57610bbc61124c565b5b600060149054906101000a900460ff166002811115610bdf57610bde61124c565b5b14610c1f576040517f08c379a0000000000000000000000000000000000000000000000000000000008152600401610c1690611446565b60405180910390fd5b600360008373ffffffffffffffffffffffffffffffffffffffff1673ffffffffffffffffffffffffffffffffffffffff16815260200190815260200160002060009054906101000a900460ff1615610cac576040517f08c379a0000000000000000000000000000000000000000000000000000000008152600401610ca390611696565b60405180910390fd5b6001600360008473ffffffffffffffffffffffffffffffffffffffff1673ffffffffffffffffffffffffffffffffffffffff16815260200190815260200160002060006101000a81548160ff02191690831515021790555060056000815480929190610d179061156d565b91905055507f0ca65a9f1f88bd7257ac852d1062853358f81cdc56f9634dcbeed6090f8dfb4382604051610d4b91906112ed565b60405180910390a15050565b604051806060016040528060045481526020018281526020016000815250600160006004548152602001908152602001600020600082015181600001556020820151816001019080519060200190610db0929190610e14565b50604082015181600201559050507fe83b2a43e7e82d975c8a0a6d2f045153c869e111136a34d1889ab7b598e396a360045482604051610df19291906116b6565b60405180910390a160046000815480929190610e0c9061156d565b919050555050565b828054610e20906113a3565b90600052602060002090601f016020900481019282610e425760008555610e89565b82601f10610e5b57805160ff1916838001178555610e89565b82800160010185558215610e89579182015b82811115610e88578251825591602001919060010190610e6d565b5b509050610e969190610e9a565b5090565b5b80821115610eb3576000816000905550600101610e9b565b5090565b6000604051905090565b600080fd5b600080fd5b600073ffffffffffffffffffffffffffffffffffffffff82169050919050565b6000610ef682610ecb565b9050919050565b610f0681610eeb565b8114610f1157600080fd5b50565b600081359050610f2381610efd565b92915050565b600060208284031215610f3f57610f3e610ec1565b5b6000610f4d84828501610f14565b91505092915050565b600081519050919050565b600082825260208201905092915050565b60005b83811015610f90578082015181840152602081019050610f75565b83811115610f9f576000848401525b50505050565b6000601f19601f8301169050919050565b6000610fc182610f56565b610fcb8185610f61565b9350610fdb818560208601610f72565b610fe481610fa5565b840191505092915050565b600060208201905081810360008301526110098184610fb6565b905092915050565b6000819050919050565b61102481611011565b811461102f57600080fd5b50565b6000813590506110418161101b565b92915050565b60006020828403121561105d5761105c610ec1565b5b600061106b84828501611032565b91505092915050565b61107d81611011565b82525050565b6000604082019050818103600083015261109d8185610fb6565b90506110ac6020830184611074565b9392505050565b60006020820190506110c86000830184611074565b92915050565b600080fd5b600080fd5b7f4e487b7100000000000000000000000000000000000000000000000000000000600052604160045260246000fd5b61111082610fa5565b810181811067ffffffffffffffff8211171561112f5761112e6110d8565b5b80604052505050565b6000611142610eb7565b905061114e8282611107565b919050565b600067ffffffffffffffff82111561116e5761116d6110d8565b5b61117782610fa5565b9050602081019050919050565b82818337600083830152505050565b60006111a66111a184611153565b611138565b9050828152602081018484840111156111c2576111c16110d3565b5b6111cd848285611184565b509392505050565b600082601f8301126111ea576111e96110ce565b5b81356111fa848260208601611193565b91505092915050565b60006020828403121561121957611218610ec1565b5b600082013567ffffffffffffffff81111561123757611236610ec6565b5b611243848285016111d5565b91505092915050565b7f4e487b7100000000000000000000000000000000000000000000000000000000600052602160045260246000fd5b6003811061128c5761128b61124c565b5b50565b600081905061129d8261127b565b919050565b60006112ad8261128f565b9050919050565b6112bd816112a2565b82525050565b60006020820190506112d860008301846112b4565b92915050565b6112e781610eeb565b82525050565b600060208201905061130260008301846112de565b92915050565b7f496e76616c69642063616e646964617465204944000000000000000000000000600082015250565b600061133e601483610f61565b915061134982611308565b602082019050919050565b6000602082019050818103600083015261136d81611331565b9050919050565b7f4e487b7100000000000000000000000000000000000000000000000000000000600052602260045260246000fd5b600060028204905060018216806113bb57607f821691505b6020821081036113ce576113cd611374565b5b50919050565b7f496e76616c696420656c656374696f6e2073746174757320666f72207468697360008201527f20616374696f6e00000000000000000000000000000000000000000000000000602082015250565b6000611430602783610f61565b915061143b826113d4565b604082019050919050565b6000602082019050818103600083015261145f81611423565b9050919050565b7f596f7520617265206e6f7420617574686f72697a656420746f20766f74650000600082015250565b600061149c601e83610f61565b91506114a782611466565b602082019050919050565b600060208201905081810360008301526114cb8161148f565b9050919050565b7f596f75206861766520616c726561647920766f74656400000000000000000000600082015250565b6000611508601683610f61565b9150611513826114d2565b602082019050919050565b60006020820190508181036000830152611537816114fb565b9050919050565b7f4e487b7100000000000000000000000000000000000000000000000000000000600052601160045260246000fd5b600061157882611011565b91507fffffffffffffffffffffffffffffffffffffffffffffffffffffffffffffffff82036115aa576115a961153e565b5b600182019050919050565b60006040820190506115ca60008301856112de565b6115d76020830184611074565b9392505050565b7f416374696f6e207265737472696374656420746f2061646d696e000000000000600082015250565b6000611614601a83610f61565b915061161f826115de565b602082019050919050565b6000602082019050818103600083015261164381611607565b9050919050565b7f566f74657220697320616c726561647920617574686f72697a65640000000000600082015250565b6000611680601b83610f61565b915061168b8261164a565b602082019050919050565b600060208201905081810360008301526116af81611673565b9050919050565b60006040820190506116cb6000830185611074565b81810360208301526116dd8184610fb6565b9050939250505056fea26469706673582212206090a323610400fffdad2d30181ea24688d5e9c682550505d48cc80cd81d086564736f6c634300080e0033",
  "immutableReferences": {},
  "source": "// SPDX-License-Identifier: MIT\r\npragma solidity ^0.8.0;\r\n\r\ncontract VotingSystem {\r\n    enum ElectionStatus { NotStarted, Ongoing, Finished }\r\n\r\n    struct Candidate {\r\n        uint id;\r\n        string name;\r\n        uint voteCount;\r\n    }\r\n\r\n    address public administrator;\r\n    ElectionStatus public currentStatus;\r\n\r\n    mapping(uint => Candidate) private candidateList;\r\n    mapping(address => bool) private hasVoted;\r\n    mapping(address => bool) private authorizedVoters;\r\n    uint public candidateCount;\r\n    uint public voterCount;\r\n\r\n    event ElectionStarted();\r\n    event ElectionEnded();\r\n    event CandidateAdded(uint candidateId, string candidateName);\r\n    event VoterAuthorized(address voterAddress);\r\n    event VoteCast(address voter, uint candidateId);\r\n\r\n    modifier onlyAdmin() {\r\n        require(msg.sender == administrator, \"Action restricted to admin\");\r\n        _;\r\n    }\r\n\r\n    modifier inStatus(ElectionStatus status) {\r\n        require(currentStatus == status, \"Invalid election status for this action\");\r\n        _;\r\n    }\r\n\r\n    constructor() {\r\n        administrator = msg.sender;\r\n        currentStatus = ElectionStatus.NotStarted;\r\n        _addCandidate(\"Candidate A\");\r\n        _addCandidate(\"Candidate B\");\r\n    }\r\n\r\n    function startElection() external onlyAdmin inStatus(ElectionStatus.NotStarted) {\r\n        currentStatus = ElectionStatus.Ongoing;\r\n        emit ElectionStarted();\r\n    }\r\n\r\n    function endElection() external onlyAdmin inStatus(ElectionStatus.Ongoing) {\r\n        currentStatus = ElectionStatus.Finished;\r\n        emit ElectionEnded();\r\n    }\r\n\r\n    function addCandidate(string memory _name) external onlyAdmin inStatus(ElectionStatus.NotStarted) {\r\n        _addCandidate(_name);\r\n    }\r\n\r\n    function _addCandidate(string memory _name) internal {\r\n        candidateList[candidateCount] = Candidate(candidateCount, _name, 0);\r\n        emit CandidateAdded(candidateCount, _name);\r\n        candidateCount++;\r\n    }\r\n\r\n    function authorizeVoter(address _voter) external onlyAdmin inStatus(ElectionStatus.NotStarted) {\r\n        require(!authorizedVoters[_voter], \"Voter is already authorized\");\r\n        authorizedVoters[_voter] = true;\r\n        voterCount++;\r\n        emit VoterAuthorized(_voter);\r\n    }\r\n\r\n    function castVote(uint _candidateId) external inStatus(ElectionStatus.Ongoing) {\r\n        require(authorizedVoters[msg.sender], \"You are not authorized to vote\");\r\n        require(!hasVoted[msg.sender], \"You have already voted\");\r\n        require(_candidateId < candidateCount, \"Invalid candidate ID\");\r\n\r\n        hasVoted[msg.sender] = true;\r\n        candidateList[_candidateId].voteCount++;\r\n        emit VoteCast(msg.sender, _candidateId);\r\n    }\r\n\r\n    function getCandidate(uint _candidateId) external view returns (string memory name, uint voteCount) {\r\n        require(_candidateId < candidateCount, \"Invalid candidate ID\");\r\n        Candidate memory candidate = candidateList[_candidateId];\r\n        return (candidate.name, candidate.voteCount);\r\n    }\r\n\r\n    function getUserRole(address _user) external view returns (string memory role) {\r\n        if (_user == administrator) {\r\n            return \"Admin\";\r\n        } else if (authorizedVoters[_user]) {\r\n            return \"Voter\";\r\n        } else {\r\n            return \"Guest\";\r\n        }\r\n    }\r\n}\r\n",
  "sourcePath": "D:\\voting-dapp\\contracts\\Voting.sol",
  "compiler": {
    "name": "solc",
    "version": "0.8.14+commit.80d49f37.Emscripten.clang"
  },
  "schemaVersion": "3.4.16",
  "updatedAt": "2024-10-21T11:45:22.648Z",
  "devdoc": {
    "kind": "dev",
    "methods": {},
    "version": 1
  },
  "userdoc": {
    "kind": "user",
    "methods": {},
    "version": 1
  }
}